:100000000C946A020C9492020C9492020C94920248
:100010000C9492020C9492020C9492020C94920210
:100020000C9492020C9492020C9492020C94920200
:100030000C9492020C9492020C9492020C949202F0
:100040000C94F90F0C9492020C94A1100C947B1058
:100050000C9492020C9492020C9492020C949202D0
:100060000C9492020C9492029C07A807B907DB0734
:10007000E2077A097A09F50700084A087A097A0935
:100080005708640871087E088B089808A508B50809
:10009000E2080F094B095309585741495400584386
:1000A0004F4D4D454E540058534952320058454E1D
:1000B0004444520058454E44495200585354415408
:1000C00045005853445254444F45005853445254E9
:1000D000444F43005853445254444F4200585344F1
:1000E000524500585344524300585344524200581A
:1000F000534452494E4300585345545344524D4182
:10010000534B53005853445254444F005853445295
:1001100053495A450058524550454154005852459C
:100120005345525645445F36005852455345525642
:1001300045445F35005852554E544553540058536A
:1001400044520058534952005854444F4D41534B68
:100150000058434F4D504C4554450044522063686D
:1001600065636B206661696C65640058434F4D5050
:100170004C455445206E6F742072656163686564F8
:100180000056526566206E6F742070726573656EDE
:10019000740053657269616C20706F7274207469A9
:1001A0006D656F7574004E6F206572726F720055C9
:1001B0006E6B6E6F776E206572726F72206D6573F5
:1001C000736167650053756D3A2030782530386C5F
:1001D000582F256C752E00436865636B73756D3AF7
:1001E00020203078253032582F256C752E0056523D
:1001F0004546206973206E6F742070726573656E5A
:10020000742E20506C656173652C20636865636B88
:1002100020746865206361626C652E000D0A5200CF
:10022000585356460020002062697473002F002145
:100230004C6173742054444F3A0052657175657374
:100240007465642044522073697A652028256C7592
:10025000206269747329206973206772656174650F
:1002600072207468616E20746865206D6178696DB4
:10027000756D20636861696E2073697A6520737596
:1002800070706F727465642062792074686973207D
:1002900070726F6772616D6D6572202825642062CF
:1002A000697473292E00556E696D706C656D656E8D
:1002B00074656420696E737472756374696F6E3AE5
:1002C000202573283078253032582900556E6B6E02
:1002D0006F776E20696E737472756374696F6E00E8
:1002E00050726F63657373656420256420696E7353
:1002F0007472756374696F6E732E002A2A2A2A2A13
:100300002A2A2A2A2A2A2A2A2A2A2A2A2A2A2A2A4D
:100310002A2A2A2A2A2A2A2A004661696C757265C5
:1003200020617420696E737472756374696F6E20D6
:1003300023253564002A2A2A2A2A2A2A2A2A2A2A0E
:100340002A2A2A2A2A2A2A2A2A2A2A2A2A2A2A2A0D
:100350002A2A002A2A2A2A2A2A2A2A00537563636B
:1003600065737321002A2A2A2A2A2A2A2A000000D1
:1003700000002300260029000000000024002700C0
:100380002A00040404040404040402020202020217
:100390000303030303030102040810204080010249
:1003A00004081020010204081020000000002500AD
:1003B00028002B0021002C000D0A51000D0A0055C9
:1003C00050444154455F49520045584954325F49B1
:1003D000520050415553455F4952004558495431E8
:1003E0005F49520053484946545F495200434150C7
:1003F000545552455F49520053454C4543545F495B
:10040000525F5343414E005550444154455F44525E
:100410000045584954325F44520050415553455F9E
:1004200044520045584954315F44520053484946AC
:10043000545F445200434150545552455F4452006A
:1004400053454C4543545F44525F5343414E005221
:10045000554E5F544553545F49444C4500544553F1
:10046000545F4C4F4749435F5245534554004452F3
:1004700020636865636B206661696C656421005563
:100480004E4B4E4F574E5F535441544500636F756A
:100490006E743A20256C642C207468726573686FE2
:1004A0006C643A2025642C206D6F643A20256C64BE
:1004B0002C20617661696C3A20256400536572696D
:1004C000616C20706F72742074696D656F75742132
:1004D0000000501111241FBECFEFD8E0DEBFCDBF0A
:1004E00012E0A0E0B1E0E8E2FCE202C005900D926B
:1004F000A633B107D9F722E0A6E3B2E001C01D920E
:10050000A03EB207E1F712E0CAE6D2E004C02197AC
:10051000FE010E94D715C936D107C9F70E94D31032
:100520000C9412160C940000FC01538D448D252F61
:1005300030E0842F90E0821B930B541710F0CF967D
:10054000089501970895FC01918D828D981761F0AF
:10055000828DDF01A80FB11D5D968C91928D9F5FFA
:100560009F73928F90E008958FEF9FEF0895FC01A5
:10057000918D828D981731F0828DE80FF11D858D58
:1005800090E008958FEF9FEF0895FC01918D228DEB
:10059000892F90E0805C9F4F821B91098F73992770
:1005A000089580E090E0892B29F00E945E0B811174
:1005B0000C9400000895089581E0089580E0089566
:1005C000CF93DF93DC0112966C93129781E0139620
:1005D0008C93139770E0CB018A569C4FFC012491B9
:1005E0002C936E577C4FFB01249111962C931197FD
:1005F000FC018491FB012491222399F030E0220F29
:10060000331FF901E858FC4FC591D491F901E65523
:10061000FC4F259134912FB7F8949881892B8883CA
:100620002FBF1196EC911197F0E0EE0FFF1FE655EA
:10063000FC4F8591949115969C938E931497DF911E
:10064000CF910895CF93DF93DC0112966C931297AC
:1006500082E013968C93139770E0CB018A569C4FDF
:10066000FC0124912C936E577C4FFB012491119631
:100670002C931197FC018491FB0124912223C9F052
:1006800030E0220F331FF901E858FC4F4591549197
:10069000F901E655FC4FC591D4912FB7F894FA01B2
:1006A0009081382F3095932390839881892B88836C
:1006B0002FBF1196EC911197F0E0EE0FFF1FE2595A
:1006C000FC4F8591949115969C938E931497DF918E
:1006D000CF91089589549F4F089502960895FC0183
:1006E00080A1882311F1848D8E3008F08E508770A0
:1006F000806480937C0080917A00806480937A008B
:1007000080917A0086FDFCCF80917800209179005D
:1007100090E0922B45E0489F9001499F300D1124B5
:1007200081E02E3F37404CF407C0A68DB78D9C91D9
:10073000828D982381E009F480E008950895DC011A
:100740001496ED91FC91159790818C91892B808363
:10075000089508960C949F0302960C949F03DC0165
:100760001496ED91FC91159790818C918095892339
:100770008083089508960C94AF0302960C94AF03FF
:100780000F931F93CF93DF93EC018C010C5E1F4FEF
:10079000C8010E94AF03EA89FB8990818E85C92F29
:1007A000C823C8010E949F0381E0C11101C080E0FD
:1007B000DF91CF911F910F910895CF93DF93EC01BB
:1007C0006496CE010E94AF03CE01DF91CF910C94CD
:1007D0009F03FC01648170E00E94B00E81E00895E7
:1007E000CF93DF93EC0168A170E00E94B00E4AA1A4
:1007F0005BA16CA17DA1CE01825B9C4F0E946B0E20
:1008000069A170E0CE010E94B00EDF91CF910895F2
:10081000CF92DF92EF920F931F93CF93DF93EC0170
:100820006BE070E00E94B00E6E0182EBC81A8CEF94
:10083000D80A0D811E8120E030E0AE0148555F4F9F
:10084000BE01695D7F4FEE24E394C6010E949C0DBA
:100850008A8D9B8DAC8DBD8D892B8A2B8B2B31F492
:100860006E8D70E0CE010E94B00E0CC061E070E0B1
:10087000CE010E94B00E4A8D5B8D6C8D7D8DC601C0
:100880000E946B0E81E0DF91CF911F910F91EF904D
:10089000DF90CF9008950F9301E020E041E060E009
:1008A0000E94050F0F9108950F9300E020E041E0B2
:1008B00060E00E94050F0F9108950F9300E020E083
:1008C00041E061E00E94050F0F9108950F9301E050
:1008D00020E040E060E00E94050F0F9108950F9323
:1008E00000E020E040E060E00E94050F0F910895D5
:1008F0000F9300E020E040E061E00E94050F0F91BF
:1009000008950F9301E021E041E061E00E94050FAE
:100910000F9108950C941512FC01848DDF01A80F2E
:10092000B11DA35ABF4F2C91848D90E001968F7317
:100930009927848FA689B7892C93A089B1898C9136
:10094000837080648C93938D848D981306C0028885
:10095000F389E02D80818F7D80830895CF93DF938D
:10096000EC0147E150E08B5C9C4F0E949E12C55BFE
:10097000DC4F1882DF91CF9108950F931F93CF938F
:10098000DF93EC01462FFC01E457FF4F0190F0810B
:10099000E02DDC01A657BF4F2C9111963C918C01A4
:1009A00002571F4FD8018D919C918E0F9F1FB90147
:1009B0000E94A115D8018D939C93411101C09F0104
:1009C0008E010D5F1F4F3F932F9386E292E09F931E
:1009D0008F931F9286E08F931F930F930E94E215CF
:1009E0006CEB73E0888199810E9443100990D88153
:1009F000C02DB801CE010E94D90B8DB79EB70896C5
:100A00000FB6F8949EBF0FBE8DBF6CE272E0CE01B0
:100A1000DF91CF911F910F910C94D90BAF92BF92A0
:100A2000CF92DF92EF92FF920F931F93CF93DF93BA
:100A3000EC016B015A0168EB73E0888199810E9497
:100A40004310088119810D2C000CEE08FF08F7FEF9
:100A500012C0D801ED91FC910190F081E02D6DE282
:100A6000C801099544275527BA014C195D096E093B
:100A70007F092AE003C02AE0B701A601C8010E944D
:100A8000EE0B66EB73E0888199810E944310B501FB
:100A900088819981DF91CF911F910F91FF90EF9005
:100AA000DF90CF90BF90AF900C946710EF92FF92C1
:100AB0000F931F93CF93DF93CDB7DEB709851A85C8
:100AC000780189E0E80EF11C9E01235F3F4F4B85C2
:100AD0005C8561E870E0C7010E94AD1264EB73E0D1
:100AE000F801808191810E944310F80100811181F9
:100AF000B701C8010E94D90B6CE272E0C8010E94E4
:100B0000D90BDF91CF911F910F91FF90EF90089536
:100B10000F931F93CF93DF93EC018AE091E09983C9
:100B200088838A819B81FC01E057FF4F23812F93AB
:100B300022812F9321812F9320812F938E01015D9C
:100B40001C4FF801208121951F922F9327ED31E052
:100B50003F932F939F938F930E9456058A819B8189
:100B6000FC01E057FF4F23812F9322812F93218196
:100B70002F9320812F93F80123812F9322812F938C
:100B800021812F9320812F9325EC31E03F932F93E8
:100B90009F938F930E945605FE01ED5CFC4F8DB72D
:100BA0009EB746960FB6F8949EBF0FBE8DBF80814C
:100BB0009181892B19F48EA1882381F16081718143
:100BC000663F9FEF7907B9F04CF46B39FFEF7F0771
:100BD000C1F06C398FEF780789F007C06F3F9FEF46
:100BE000790731F06115710579F04FEA51E00EC0D7
:100BF00042E951E00BC041E851E008C04BE651E04A
:100C000005C04BE551E002C046EA51E08A819B8174
:100C1000DF91CF911F910F910C940E058CE99FEFFE
:100C200091838083CBCFCF93DF93EC010E94880523
:100C3000CE01DF91CF910C9415122F923F924F92DB
:100C40005F926F927F928F929F92AF92BF92CF925C
:100C5000DF92EF92FF920F931F93CF93DF93CDB765
:100C6000DEB7C551D4400FB6F894DEBF0FBECDBF7E
:100C700080EC91E09A83898386E392E09C838B8366
:100C80001D828EE390E0C357DF4F99838883CD5850
:100C9000D04086E290E0C157DF4F99838883CF58D8
:100CA000D040CF56DF4F19821882C159D040CD565F
:100CB000DF4F188219821A821B82C359D0408B8160
:100CC0009C81DC01ED91FC910084F185E02D09957A
:100CD000AB81BC81892B49F0ED91FC911197028485
:100CE000F385E02DCD010995EACF6CE172E0CD01ED
:100CF0000E94431060E272E08B819C810E94671029
:100D00007E01B7E9EB0EF11C8AEA91E0F7019183CD
:100D1000808368E0CE0187569F4F0E94E00269E021
:100D2000CE0181569F4F0E94E0026AE0CE018B55B2
:100D30009F4F0E9422036BE0CE0185559F4F0E947A
:100D4000E0026CE0CE018F549F4F0E942203C954F1
:100D5000DF4F1882C75BD040CE0185559F4F0E9460
:100D60009F038AE091E0C854DF4F99838883C85B72
:100D7000D0408E010D5F1F4FC654DF4F198308838B
:100D8000CA5BD040C454DF4F1882CC5BD040C35400
:100D9000DF4F19821882CD5BD040C154DF4F1982DA
:100DA0001882CF5BD040CF53DF4F188219821A824E
:100DB0001B82C15CD040CB53DF4F188219821A824C
:100DC0001B82C55CD040C753DF4F188219821A823C
:100DD0001B82C95CD040C353DF4F188219821A822C
:100DE0001B82CD5CD04080E2CF52DF4F8883C15D53
:100DF000D040CE52DF4F188219821A821B82C25D08
:100E0000D040DD24D394CA52DF4FD882C65DD04093
:100E1000C952DF4FD882C75DD040C252DF4F18821F
:100E2000CE5DD040CB51DC4F19821882C55ED340D5
:100E3000C951DC4F188219821A821B82C75ED340C7
:100E4000C551DC4F19821882CB5ED3408D81811150
:100E500005C061E0C8010E94BD04DD8280E491E02C
:100E6000C854DF4F99838883C85BD040CC5FDB4F89
:100E700019830883C450D440CA5FDB4F19830883A9
:100E8000C650D440C85FDB4FF982E882C850D440D6
:100E9000C65FDB4F1882CA50D440C7010E946F035F
:100EA00081110CC04EEE51E066EF7FEFCA5FDB4F61
:100EB00088819981C650D4400E940E05C55FDB4FE2
:100EC0001882CB50D440412C512C3201FFEF4F1AE5
:100ED0005F0A6F0A7F0ACE0188549F4F0E94500D0F
:100EE000F82ECB51DC4F88819981C55ED3400196A5
:100EF000CB51DC4F99838883C55ED34027E12F1502
:100F000048F0EF2DF0E0EE0FFF1FEA58FE4F608132
:100F1000718102C06CEC72E0CE0188549F4F0E9438
:100F2000AE048F2D90E08831910508F0E3C1FC01FB
:100F3000EC5CFF4F0C94D71581E0C252DF4F8883E1
:100F4000CE5DD040CE0188549F4F0E94DE02F1C199
:100F5000CB53DF4F288139814A815B81C55CD0400A
:100F6000BE016F517E4FCE0188549F4F0E94520D9B
:100F700036C0CE0188549F4F0E94500D90E0C3545C
:100F8000DF4F99838883CD5BD04090E0A0E0B0E054
:100F90000796A11DB11D9C01AD01F3E05695479543
:100FA00037952795FA95D1F7C154DF4F39832883B8
:100FB000CF5BD04062C1CE0188549F4F0E94900DFC
:100FC00081116FC0CE0188549F4F0E94230DCE52D5
:100FD000DF4F688379838A839B83C25DD040CE01D3
:100FE00088549F4F0E94DC02A4C1CE0188549F4FB9
:100FF0000E94500DCF52DF4F8883C15DD040EFCFAC
:10100000CE0188549F4F0E94230DCF53DF4F68833A
:1010100079838A839B83C15CD0406B017C01A7E00C
:10102000CA0ED11CE11CF11CE3E0F694E794D794BE
:10103000C794EA95D1F7CB53DF4FC882D982EA82B1
:10104000FB82C55CD040B2E8CB16D104E104F104C8
:1010500030F21F921F9224E02F9328E02F939F934A
:101060008F937F936F938AE392E09F938F93C554FE
:10107000DF4F8881CB5BD0408F93C654DF4F888190
:10108000CA5BD0408F930E9456050FB6F894DEBF1E
:101090000FBECDBFCE0188549F4F0E94760D88238E
:1010A00031F0CE0188549F4F0E94810442C1CE018D
:1010B00088549F4F0E94900D882331F0CE018854B0
:1010C0009F4F0E94780435C1CE0188549F4F0E94E3
:1010D000900D882331F0CE0188549F4F0E946F04F9
:1010E00028C1CE0188549F4F0E94900D882331F073
:1010F000CE0188549F4F0E9466041BC1CE018854C4
:101100009F4F0E94760D882331F0CE0188549F4F67
:101110000E945D040EC1CE0188549F4F0E94760D3F
:10112000882331F0CE0188549F4F0E94540401C19E
:10113000CE0188549F4F0E94760D882331F0CE0156
:1011400088549F4F0E944B04F4C0CE0188549F4F97
:101150000E94500DC454DF4F8883CC5BD040CE0139
:1011600088549F4F0E94E903E4C0CE0188549F4FEA
:101170000E94500D882321F0813059F48DE001C088
:1011800081E0CA52DF4F8883C65DD040FF24F394CC
:1011900001C0F12CCA52DF4FE881C65DD040E0317A
:1011A00040F4F0E0EE0FFF1FEA52FE4F60817181C4
:1011B00002C06FE774E0CE0188549F4F0E94AE04D6
:1011C000F1100DCFCE0188549F4F0E94500D8823FF
:1011D00021F0813059F486E001C081E0C952DF4F2F
:1011E0008883C75DD040FF24F39401C0F12CC9521D
:1011F000DF4FE881C75DD040E03140F4F0E0EE0F12
:10120000FF1FEA52FE4F6081718102C06FE774E0F8
:10121000CE0188549F4F0E94AE04F110E0CECE0163
:1012200088549F4F0E94370C282F30E0F22EEE2476
:10123000CE0188549F4F0E94370C9701282BC3542E
:10124000DF4F39832883CD5BD040C901A0E0B0E0F7
:101250000796A11DB11D53E0B695A7959795879563
:101260005A95D1F7C154DF4F99838883CF5BD04023
:101270009C01AD01332744275527BE0161527F4FA2
:10128000CE0188549F4F0E94520DCE0188549F4F2B
:101290000E9408044EC0CE0188549F4F0E94500DFA
:1012A0008111F9CF9CCECE0188549F4F0E94500DE2
:1012B000C852DF4F8883C85DD040CE0188549F4F0D
:1012C0000E94500DC752DF4F8883C95DD040CE01C8
:1012D00088549F4F0E94230DC652DF4F6883798345
:1012E0008A839B83CA5DD040CE0188549F4F0E9461
:1012F000F0031FC01F92FF92CE0183519C4F9F931A
:101300008F9386EA92E09F938F93C554DF4F888135
:10131000CB5BD0408F93C654DF4F8881CA5BD040EF
:101320008F930E9456050FB6F894DEBF0FBECDBF57
:1013300002C08111CBCDC252DF4F8881CE5DD0403B
:101340008823B9F085E693E09F938F931F930F93C3
:101350000E9456058CE593E09F938F931F930F9304
:101360000E94560583E593E09F938F931F930F93FD
:101370001AC085E393E09F938F931F930F930E946E
:1013800056057F926F925F924F9289E193E09F930F
:101390008F931F930F930E9456058BEF92E09F93BC
:1013A0008F931F930F930E9456050FB6F894DEBFDC
:1013B0000FBECDBFCF53DF4F88819981AA81BB81FA
:1013C000C15CD040C05FDB4F88839983AA83BB8315
:1013D000C051D440C654DF4F28803980CA5BD0400A
:1013E0006C017D0197E0C90ED11CE11CF11C93E05A
:1013F000F694E794D794C7949A95D1F76FE272E088
:10140000D1018D919C910E944310C114D104E1043B
:10141000F10409F47FC0FE01E05AFE4FCC5EDB4FC1
:10142000F983E883C451D4404101F9E08F0E911C47
:10143000CC5EDB4F88819981C451D440C25FDB4FC1
:1014400099838883CE50D440C45FDB4F99828882D1
:10145000CC50D44081E8A82EB12CC25FDB4FA881CC
:10146000B981CE50D4408D91C25FDB4FB983A88340
:10147000CE50D4401F928F93EFE2F2E0FF93EF93B0
:10148000BF92AF92C35FDB4F8881CD50D4408F9322
:10149000C45FDB4F9881CC50D4409F930E94E215EB
:1014A000C25FDB4FA881B981CE50D440CC5EDB4F08
:1014B000B983A883C451D440C45FDB4FE881F9816C
:1014C000CC50D4403396C45FDB4FF983E883CC50D3
:1014D000D440F3E0AF1AB10821E0C21AD108E10804
:1014E000F1080FB6F894DEBF0FBECDBF61F096E0F5
:1014F000A916B10409F0B1CFB401F1018081918145
:101500000E94D90B95CFB401D1018D919C910E947D
:10151000D90B07C065E272E0D1018D919C910E94C8
:1015200043106DE272E0F101808191810E944310CD
:101530002AE0C05FDB4F488159816A817B81C051BD
:10154000D440D1018D919C910E94EE0B67E272E034
:10155000F101808191810E9467107F926F925F926A
:101560004F9280EE92E09F938F931F930F930E9470
:10157000560580EC91E09A838983CE0188549F4F71
:101580000E9488050FB6F894DEBF0FBECDBFCB5EBC
:10159000DB4F0FB6F894DEBF0FBECDBFDF91CF910A
:1015A0001F910F91FF90EF90DF90CF90BF90AF9081
:1015B0009F908F907F906F905F904F903F902F9073
:1015C00008951F93CF93DF93EC01162F8A819B819F
:1015D000DC01ED91FC91662321F00084F185E02D82
:1015E00003C00284F385E02D09958A819B81DC018B
:1015F000ED91FC910480F581E02D0995EC81F0E0FE
:10160000EA5EFD4F8081111182958F708C83DF918E
:10161000CF911F9108953FB7F8948091D402909193
:10162000D502A091D602B091D70226B5A89B05C0DD
:101630002F3F19F00196A11DB11D3FBFBA2FA92F51
:10164000982F8827820F911DA11DB11DBC01CD01CE
:1016500042E0660F771F881F991F4A95D1F70895BA
:10166000CF92DF92EF92FF920F931F93CF93DF936E
:101670006C017A018B01C0E0D0E0CE15DF0581F06E
:10168000D8016D918D01D601ED91FC910190F08111
:10169000E02DC6010995892B11F02196EECF7E0130
:1016A000C701DF91CF911F910F91FF90EF90DF90D5
:1016B000CF900895089580E090E0089586E392E049
:1016C0000E94C50221E0892B09F420E0822F0895B1
:1016D0000E94DD15EF92FF920F931F93CF93DF933C
:1016E000EC0181E0888F9B8D8C8D981305C0E88973
:1016F000F989808185FD26C0F62E0B8D10E00F5FE5
:101700001F4F0F731127E02E8C8DE8120CC00FB6FF
:1017100007FCFACFE889F989808185FFF5CFCE01F2
:101720000E948C04F1CF8B8DFE01E80FF11DE35A6E
:10173000FF4FF0829FB7F8940B8FEA89FB89808175
:1017400080620AC09FB7F894EE89FF896083E889B8
:10175000F98980818370806480839FBF81E090E0FD
:10176000DF91CF911F910F91FF90EF900895CF934C
:10177000DF93EC01888D8823C9F0EA89FB89808199
:1017800085FD05C0A889B9898C9186FD0FC00FB66B
:1017900007FCF5CF808185FFF2CFA889B9898C91AC
:1017A00085FFEDCFCE010E948C04E7CFDF91CF9172
:1017B00008956115710579F0FB0101900020E9F7AA
:1017C0003197AF01461B570BDC01ED91FC91028074
:1017D000F381E02D099480E090E008958F929F922C
:1017E000AF92BF92EF92FF920F931F93CF93DF932D
:1017F000CDB7DEB7A1970FB6F894DEBF0FBECDBF51
:101800007C01FA01CB0119A2223008F42AE08E01F2
:101810000F5D1F4F822E912CA12CB12CBF01A50171
:1018200094010E94B515F901CA01015011096A30ED
:1018300014F4605D01C0695CD8016C93232B242BE8
:10184000252B61F7B801C7010E94D90BA1960FB6ED
:10185000F894DEBF0FBECDBFDF91CF911F910F91E6
:10186000FF90EF90BF90AF909F908F9008958F92D0
:101870009F92AF92BF92CF92DF92EF92FF920F931F
:101880001F93CF93DF938C01DC011296CD91DC91F5
:1018900013978FB7F894C090D802D090D902E090F7
:1018A000DA02F090DB028FBFB8EBCB0EBBE0DB1EA1
:1018B000E11CF11C88819981DC01ED91FC9100848F
:1018C000F185E02D09951816190684F02FB7F894C4
:1018D0008091D8029091D902A091DA02B091DB02F6
:1018E0002FBF8C159D05AE05BF0520F3888199811A
:1018F000DC01ED91FC910084F185E02D0995FE015C
:10190000E057FF4F7F019E0126573F4F59011816A0
:10191000190674F588819981DC01ED91FC910284AE
:10192000F385E02D09956C01F70180819181A281F9
:10193000B381BC01CD016F5F7F4F8F4F9F4F60839D
:10194000718382839383F5012081318140E050E0EF
:101950000E94B515FE01E257FF4F208131814901F8
:10196000A12CB12C681579058A059B05E1F537C0D6
:10197000D701DC901196CC90119712969C901297FB
:101980001396FC909F938F93F5012081318140E065
:1019900050E06D2D7C2D892D9F2D0E94B5159F93B4
:1019A0008F937F936F93FE01E457FF4F81818F9355
:1019B00080818F93FF929F92CF92DF928DE894E087
:1019C0009F938F93DF93CF930E9456058DB79EB759
:1019D00040960FB6F8949EBF0FBE8DBF18C060E052
:1019E000CE010E94BD049FEFC916D90681F0F8010F
:1019F000E15DFC4F80819181A281B3818C0D911DAD
:101A0000A11DB11D80839183A283B3830EC04CEBD3
:101A100054E06FEF7FEFD80112968D919C91139750
:101A20000E940E05CC24CA94DC2C8C2DDF91CF9122
:101A30001F910F91FF90EF90DF90CF90BF90AF90EC
:101A40009F908F900895CF92DF92EF92FF921F9315
:101A5000CF93DF93EC010E94370CC82ED12CE12CE0
:101A6000F12CFC2CEE24DD24CC24CE010E94370C7A
:101A7000E82ACE010E94370C182FCE010E94370CA5
:101A8000A7019601282BDA01C901BC01CD01712BF8
:101A9000DF91CF911F91FF90EF90DF90CF9008954D
:101AA0000C94370CCF92DF92EF92FF920F931F931B
:101AB000CF93DF938C01EB0169017A01C114D1044A
:101AC000E104F10451F0C8010E94370C899381E0D0
:101AD000C81AD108E108F108F1CFDF91CF911F9129
:101AE0000F91FF90EF90DF90CF900895CF93DF9309
:101AF000EC012D853E854F855889BC01695D7F4F7E
:101B00000E94520D2D853E854F855889BE01665530
:101B10007E4FCE010E94520D81E0DF91CF9108955A
:101B2000FC012585368547855089BC01695D7F4F5D
:101B30000E94520D81E008952F923F924F925F9242
:101B40006F927F928F929F92AF92BF92CF92DF92CD
:101B5000EF92FF920F931F93CF93DF93CDB7DEB732
:101B600027970FB6F894DEBF0FBECDBF9F838E833D
:101B700048015901ED826801790127E0C20ED11CAC
:101B8000E11CF11C83E0F694E794D794C7948A95FE
:101B9000D1F7CA018C0D9D1D9C838B831B012C0CDE
:101BA0003D1C412C512C3201C414D504E604F70429
:101BB00009F478C0D101EE911D01E983F1E08F1A9B
:101BC0009108A108B1081A8200E010E02FEF8216F8
:101BD0009206A206B20609F459C081149104A10428
:101BE000B104E9F48D818823D1F0AE81BF811296D2
:101BF0008D919C911397DC01ED91FC910084F1850E
:101C0000E02D0995AE81BF811496EC911497F0E018
:101C1000EA5EFD4F808182958F7014968C93EE81E1
:101C2000FF8182819381F981DC01F0FF06C0ED9193
:101C3000FC910484F585E02D05C0ED91FC910684AE
:101C4000F785E02D0995B981B695B983EE81FF81BD
:101C500082819381DC01ED91FC910680F781E02D7A
:101C60000995002E01C0880F0A94EAF7BA81B82BB3
:101C7000BA830F5F1F4FD501C4010197A109B109B4
:101C80000830110519F04C015D01A0CFEB81FC81FA
:101C90002A812293FC83EB838FEF481A580A680A43
:101CA000780A82CF27960FB6F894DEBF0FBECDBF5D
:101CB000DF91CF911F910F91FF90EF90DF90CF9028
:101CC000BF90AF909F908F907F906F905F904F905C
:101CD0003F902F9008958F929F92AF92BF92CF9294
:101CE000DF92EF92FF92CF93DF93EC016A017B01C9
:101CF0000E940B0B46015701860E971EA81EB91EA7
:101D0000C114D104E104F10479F08A819B81DC01E2
:101D1000ED91FC910480F581E02D0995B1E0CB1A9D
:101D2000D108E108F108ECCF0E940B0B681579058A
:101D30008A059B0550F48A819B81DC01ED91FC9121
:101D40000480F581E02D0995EFCFDF91CF91FF90D1
:101D5000EF90DF90CF90BF90AF909F908F900895BD
:101D6000CF92DF92EF92FF920F931F93CF93DF9367
:101D70008C01EB017C0182EBE81A8CEFF80A2097CA
:101D800031F16801EEEACE1AECEFDE0AF60180814D
:101D900090E0C817D90749F4F801ED5AFC4FC08309
:101DA000C03108F16FE774E025C0880F991FFC016E
:101DB000EA50FE4F608171810C2E02C076956795C6
:101DC0000A94E2F76170C7010E94E10ADFCF95E053
:101DD000C92ED12C61E0C7010E94E10AF1E0CF1ABF
:101DE000D108C1F7D9CFD0E0CC0FDD1FCA52DE4FEA
:101DF00068817981C801DF91CF911F910F91FF9088
:101E0000EF90DF90CF900C94AE042F923F924F92C0
:101E10005F926F927F928F929F92AF92BF92CF927A
:101E2000DF92EF92FF920F931F93CF93DF9300D037
:101E300000D0CDB7DEB79C838B83F42E422E502E7C
:101E4000DC015996CC90D12C662321F064E070E03F
:101E50000E94B00E8B809C80B8EA8B0E911CAB80E8
:101E6000BC80E2EBAE1AECEFBE0A6B807C80F7E23E
:101E70006F0E711C81E0C81AD108C601019697FD4A
:101E800084C0EB81FC810185128523853485E52C96
:101E9000A401B301C5010E949C0DFF2009F473C089
:101EA000AB81BC811D960D911D912D913C91509758
:101EB000CD0186559E4F9A828982FD01E75DFE4FD6
:101EC00040E050E0BA014017510762077307C1F1C3
:101ED000DC013D90CD01A981BA81ED90BA83A9833F
:101EE000442019F020803220E2204F5F5F4F6F4F77
:101EF0007F4F31963E1439F366E070E08B819C8110
:101F00000E94B00E64E070E08B819C810E94B00E54
:101F100061E070E08B819C810E94B00EAB81BC813E
:101F20005A964D915D916D917C915D97C5010E948E
:101F30006B0E64E070E08B819C810E94B00E9ACFA2
:101F4000552009F1EB81FC81828D938DA48DB58D97
:101F5000892B8A2B8B2B31F4678D70E0CF010E9487
:101F6000B00E11C061E070E08B819C810E94B00EC8
:101F7000AB81BC815A964D915D916D917C915D973D
:101F8000C5010E946B0E81E01DC0FF20E1F3EB81D3
:101F9000FC81ED5CFC4F8BE99FEF918380838EE6A3
:101FA00094E09F938F93EB81FC81E45BFC4F8181F4
:101FB0008F9380818F930E9456050F900F900F9002
:101FC0000F9080E00F900F900F900F90DF91CF91C6
:101FD0001F910F91FF90EF90DF90CF90BF90AF9047
:101FE0009F908F907F906F905F904F903F902F9039
:101FF00008951F920F920FB60F9211242F933F93C3
:102000008F939F93AF93BF938091D8029091D90201
:10201000A091DA02B091DB023091D30223E0230FCA
:102020002D3720F40196A11DB11D05C026E8230F10
:102030000296A11DB11D2093D3028093D8029093E4
:10204000D902A093DA02B093DB028091D40290917E
:10205000D502A091D602B091D7020196A11DB11D63
:102060008093D4029093D502A093D602B093D70266
:10207000BF91AF919F918F913F912F910F900FBE84
:102080000F901F901895EF92FF920F931F93CF938D
:10209000DF938C017B01C0E0D0E0F701EC0FFD1F66
:1020A0006491662361F0D801ED91FC910190F0817B
:1020B000E02DC8010995892B11F02196EECFCE01B4
:1020C000DF91CF911F910F91FF90EF9008950F93A3
:1020D0001F93CF93DF93EC010E9443108C016CE2BD
:1020E00072E0CE010E94D90B800F911FDF91CF913A
:1020F0001F910F9108951F920F920FB60F92112406
:102100002F933F934F935F936F937F938F939F93FF
:10211000AF93BF93EF93FF9386E392E00E948C040A
:10212000FF91EF91BF91AF919F918F917F916F91AF
:102130005F914F913F912F910F900FBE0F901F9085
:1021400018951F920F920FB60F9211242F938F9311
:102150009F93EF93FF93E0914602F09147028081B5
:10216000E0914C02F0914D0282FD12C0908180916D
:102170004F028F5F8F7320915002821751F0E091D0
:102180004F02F0E0EA5CFD4F958F80934F0201C053
:102190008081FF91EF919F918F912F910F900FBEB2
:1021A0000F901F901895789484B5826084BD84B593
:1021B000816084BD85B5826085BD85B5816085BD42
:1021C00080916E00816080936E00109281008091FA
:1021D0008100826080938100809181008160809382
:1021E0008100809180008160809380008091B100A7
:1021F00084608093B1008091B00081608093B000D2
:1022000080917A00846080937A0080917A00826065
:1022100080937A0080917A00816080937A00809127
:102220007A00806880937A001092C100E0914602A3
:10223000F091470282E08083E0914202F0914302F4
:102240001082E0914402F091450280E18083109277
:102250004E02E0914A02F0914B0286E08083E091C9
:102260004802F0914902808180618083E0914802B8
:10227000F0914902808188608083E0914802F0916A
:102280004902808180688083E0914802F091490290
:1022900080818F7D80830E941D060E94D102FBCF2A
:1022A000E6E3F2E01382128288EE93E0A0E0B0E071
:1022B00084839583A683B78388EC91E091838083A0
:1022C00085EC90E09587848784EC90E097878687FB
:1022D00080EC90E0918B808B81EC90E0938B828BF3
:1022E00082EC90E0958B848B86EC90E0978B868BCC
:1022F000118E128E138E148E08950F931F93CF9309
:10230000DF938230910510F482E090E0E091DE02EC
:10231000F091DF0220E030E0A0E0B0E0309719F16A
:10232000408151810281138148175907C8F08417F1
:10233000950769F4109731F012960C931297139643
:102340001C9327C00093DE021093DF0222C02115E8
:10235000310519F04217530718F49A01BD01EF0136
:10236000DF01F801DBCF21153105F9F0281B390B0E
:102370002430310580F48A819B816115710521F03B
:10238000FB019383828304C09093DF028093DE027B
:10239000FE01329644C0FE01E20FF31F8193919338
:1023A00022503109398328833AC02091DC023091D0
:1023B000DD02232B41F4209102013091030130937F
:1023C000DD022093DC0220910001309101012115F2
:1023D000310541F42DB73EB74091040150910501FC
:1023E000241B350BE091DC02F091DD02E217F307CC
:1023F000A0F42E1B3F0B2817390778F0AC014E5F75
:102400005F4F2417350748F04E0F5F1F5093DD02D2
:102410004093DC028193919302C0E0E0F0E0CF01B1
:10242000DF91CF911F910F910895CF93DF93009784
:1024300009F481C0FC01329713821282A091DE025E
:10244000B091DF02109781F420813181820F931FB8
:102450002091DC023091DD022817390751F5F09305
:10246000DD02E093DC0267C0ED0120E030E0CE1732
:10247000DF0740F44A815B819E0141155105F1F06F
:10248000EA01F5CFD383C28340815181840F951F28
:10249000C817D90759F488819981840F951F02962E
:1024A000918380838A819B81938382832115310567
:1024B00029F4F093DF02E093DE023DC0E901FB83E3
:1024C000EA8349915991C40FD51FEC17FD0761F4B8
:1024D00080819181840F951F0296E90199838883F9
:1024E000828193819B838A83E0E0F0E012968D9154
:1024F0009C911397009719F0FD01DC01F7CF8D91A6
:102500009C9111979D012E5F3F4F820F931F209149
:10251000DC023091DD022817390769F4309729F47D
:102520001092DF021092DE0202C013821282B09378
:10253000DD02A093DC02DF91CF910895FB01DC0165
:102540004150504048F005900D920020C9F701C05D
:102550001D9241505040E0F70895AEE0B0E0E3EB4B
:10256000F2E10C9478158C01FA018EE08C831A83C9
:10257000098377FF02C060E070E8CB0101979E837A
:102580008D83A901BF01CE0101960E94D9124D8110
:102590005E8157FD0AC02F813885421753070CF41E
:1025A0009A01F801E20FF31F10822E96E4E00C94DA
:1025B0009415ABE0B0E0EFEDF2E10C946A156C011C
:1025C0007B018A01FC0117821682838181FFCCC1C5
:1025D000CE0101963C01F6019381F70193FD8591AF
:1025E00093FF81917F01882309F4BAC1853239F4C0
:1025F00093FD859193FF81917F01853229F4B60186
:1026000090E00E94D014E7CF912C212C312CFFE1D7
:10261000F315D8F08B3279F038F4803279F08332C8
:10262000A1F4232D20611DC08D3261F0803369F447
:10263000232D216016C0832D8260382EE32DE460A7
:102640003E2E2AC0F32DF8601DC037FC2DC020EDB2
:10265000280F2A3040F08E32B9F436FC81C1232D88
:102660002064322E19C036FE06C08AE0989E200DE6
:102670001124922E11C0EAE02E9E200D1124222E4C
:10268000F32DF0623F2E08C08C3621F4832D806834
:10269000382E02C0883641F4F70193FD859193FFEF
:1026A00081917F018111B3CF982F9F7D95549330F5
:1026B00028F40C5F1F4F9FE399830DC0833631F0E0
:1026C000833771F0833509F059C021C0F80180814A
:1026D00089830E5F1F4F88248394912C530113C06C
:1026E0002801F2E04F0E511CF801A080B18036FEA7
:1026F00003C0692D70E002C06FEF7FEFC5010E943B
:10270000C5144C018201F32DFF773F2E16C028011E
:1027100022E0420E511CF801A080B18036FE03C0B9
:10272000692D70E002C06FEF7FEFC5010E94BA14FF
:102730004C01F32DF0683F2E820133FC1BC0822D2B
:1027400090E088169906B0F4B60180E290E00E940D
:10275000D0142A94F4CFF50137FC859137FE81918E
:102760005F01B60190E00E94D01421102A9421E06C
:10277000821A91088114910471F7E8C0843611F02F
:10278000893641F5F80137FE07C060817181828189
:1027900093810C5F1F4F08C060817181072E000C70
:1027A000880B990B0E5F1F4FF32DFF763F2E97FF7F
:1027B00009C090958095709561957F4F8F4F9F4F81
:1027C000F0683F2E2AE030E0A3010E940C15882E0D
:1027D000861845C0853731F4232D2F7EB22E2AE08E
:1027E00030E025C0932D997FB92E8F36C1F018F4B3
:1027F000883579F0B5C0803719F0883721F0B0C03E
:10280000E92FE061BE2EB4FE0DC0FB2DF460BF2E9B
:1028100009C034FE0AC0292F2660B22E06C028E067
:1028200030E005C020E130E002C020E132E0F801F4
:10283000B7FE07C060817181828193810C5F1F4F59
:1028400006C06081718180E090E00E5F1F4FA301A0
:102850000E940C15882E8618FB2DFF773F2E36FE22
:102860000DC0232D2E7FA22E891458F434FE0BC0E8
:1028700032FC09C0832D8E7EA82E05C0B82CA32C57
:1028800003C0B82C01C0B92CA4FE0FC0FE01E80D96
:10289000F11D8081803321F49A2D997EA92E09C0E3
:1028A000A2FE06C0B394B39404C08A2D867809F0C2
:1028B000B394A3FC11C0A0FE06C0B21488F4280C87
:1028C000922C9B180EC0B21460F4B60180E290E026
:1028D0000E94D014B394F7CFB21418F42B1802C08E
:1028E000982C212CA4FE10C0B60180E390E00E9439
:1028F000D014A2FE17C0A1FC03C088E790E002C07C
:1029000088E590E0B6010CC08A2D867859F0A1FECA
:1029100002C08BE201C080E2A7FC8DE2B60190E02C
:102920000E94D014891438F4B60180E390E00E942C
:10293000D0149A94F7CF8A94F301E80DF11D8081A9
:10294000B60190E00E94D0148110F5CF222009F446
:1029500042CEB60180E290E00E94D0142A94F6CFD5
:10296000F6018681978102C08FEF9FEF2B96E2E1FF
:102970000C948615FC010590615070400110D8F749
:10298000809590958E0F9F1F0895FC0161507040B7
:1029900001900110D8F7809590958E0F9F1F089594
:1029A0000F931F93CF93DF93FB01238121FD03C07E
:1029B0008FEF9FEF2CC022FF16C0468157812481E4
:1029C00035814217530744F4A081B1819D012F5FE7
:1029D0003F4F318320838C93268137812F5F3F4F78
:1029E0003783268314C08B01EC01FB010084F18541
:1029F000E02D0995892BE1F6D80116968D919C91D1
:102A00001797019617969C938E931697CE01DF9198
:102A1000CF911F910F910895FA01AA27283051F103
:102A2000203181F1E8946F936E7F6E5F7F4F8F4FFF
:102A30009F4FAF4FB1E03ED0B4E03CD0670F781F5E
:102A4000891F9A1FA11D680F791F8A1F911DA11D43
:102A50006A0F711D811D911DA11D20D009F468947C
:102A60003F912AE0269F11243019305D3193DEF624
:102A7000CF010895462F4770405D4193B3E00FD0DA
:102A8000C9F7F6CF462F4F70405D4A3318F0495DC5
:102A900031FD4052419302D0A9F7EACFB4E0A695A8
:102AA0009795879577956795BA95C9F700976105CA
:102AB000710508959B01AC010A2E06945795479520
:102AC00037952795BA95C9F7620F731F841F951F15
:102AD000A01D08952F923F924F925F926F927F9226
:102AE0008F929F92AF92BF92CF92DF92EF92FF921E
:102AF0000F931F93CF93DF93CDB7DEB7CA1BDB0BCA
:102B00000FB6F894DEBF0FBECDBF09942A8839886E
:102B100048885F846E847D848C849B84AA84B98475
:102B2000C884DF80EE80FD800C811B81AA81B98181
:102B3000CE0FD11D0FB6F894DEBF0FBECDBFED0195
:102B40000895AA1BBB1B51E107C0AA1FBB1FA617F4
:102B5000B70710F0A61BB70B881F991F5A95A9F746
:102B600080959095BC01CD010895A1E21A2EAA1B73
:102B7000BB1BFD010DC0AA1FBB1FEE1FFF1FA2172D
:102B8000B307E407F50720F0A21BB30BE40BF50B2A
:102B9000661F771F881F991F1A9469F760957095B3
:102BA000809590959B01AC01BD01CF010895EE0F7A
:102BB000FF1F0590F491E02D099481E090E0F894D6
:102BC0000C941216AEE0B0E0E8EEF5E10C94781546
:102BD0000D891E898F89988D26E02C831A8309839D
:102BE00097FF02C080E090E801979E838D83AE013D
:102BF000455E5F4F698D7A8DCE0101960E94D91294
:102C00004D815E8157FD0AC02F81388542175307D9
:102C10000CF49A01F801E20FF31F10822E96E4E003
:082C20000C949415F894FFCF09
:102C28000000E002800000000000680B680B680BE1
:102C3800680B680B680B680B680B680B680B680BF4
:102C4800680B680B680B680B680B680B680B680BE4
:102C5800680B680B680B680B680B680B00000000BA
:102C6800DE02DC0208048104DC02DC02DC02DC0295
:102C7800DC028104DC02DE0278046F0466045D0471
:102C880054044B04E903DC02DC020804DC02DB0226
:102C9800F003880513065101480143013E0135013F
:102CA80029011D0115010C010401F700EF00E900DD
:102CB800E300DD00D400CB00C200BB00B400AD00CF
:102CC800A7009E009800000000009E038A04DD0310
:102CD800C003AC03BD03A903BA036F0300000000DF
:102CE8006D036A03000000006A0B300B9402B70BF7
:102CF800C502A302B7025D044F04400435042C0446
:102D080023041A0411040704F803ED03E403DB03A6
:102D1800D203C903BF030100FDFF03FEE7FFEFFF76
:102D28000FFFBFFF0FFFFDFEFF01FFF3FFF7FF8758
:102D3800FFDFFF87FD7F0121935454867684210AA3
:102D4800CBCBFDEDFB2153252D3464000D0A00206B
:062D580025303258000096
:00000001FF
